:020000040800F2
:1000000000000120514D0008393600083B36000839
:100010003D3600083F360008413600080000000069
:10002000000000000000000000000000433600084F
:100030004536000800000000473600084936000831
:10004000A14D000800000000A14D0008A14D0008CE
:10005000A14D0008A14D00080000000000000000B4
:10006000A14D0008A14D0008A14D000800000000AE
:1000700000000000A14D000800000000000000008A
:10008000A14D0008A14D0008A14D0008A14D000898
:10009000A14D0008A14D0008A14D0008A14D000888
:1000A000A14D0008A14D0008A14D0008A14D000878
:1000B000A14D0008A14D0008A14D0008A14D000868
:1000C000A14D0008A14D0008A14D0008A14D000858
:1000D000A14D0008A14D0008A14D0008A14D000848
:1000E000A14D0008A14D0008A14D0008A14D000838
:1000F000A14D0008A14D0008A14D0008A14D000828
:10010000A14D0008A14D0008A14D0008A14D000817
:10011000A14D0008A14D0008A14D0008A14D000807
:10012000A14D0008A14D0008A14D0008A14D0008F7
:10013000A14D0008A14D0008A14D0008A14D0008E7
:10014000A14D0008A14D0008A14D0008A14D0008D7
:10015000A14D0008A14D0008A14D0008A14D0008C7
:10016000A14D0008A14D0008A14D0008A14D0008B7
:10017000A14D0008A14D0008A14D0008A14D0008A7
:10018000A14D0008A14D0008A14D0008A14D000897
:10019000A14D0008A14D0008A14D0008A14D000887
:1001A000A14D0008A14D0008A14D0008A14D000877
:1001B000A14D0008A14D0008A14D0008A14D000867
:1001C000A14D0008A14D0008A14D0008A14D000857
:1001D000A14D0008A14D0008A14D0008A14D000847
:1001E000A14D0008A14D0008A14D0008A14D000837
:1001F000A14D0008A14D0008000000000000000013
:10020000A14D0008A14D0008A14D0008A14D000816
:10021000A14D0008A14D0008A14D0008A14D000806
:10022000A14D0008A14D0008A14D0008A14D0008F6
:10023000A14D0008A14D0008A14D0008A14D0008E6
:10024000A14D0008A14D0008A14D0008A14D0008D6
:10025000A14D0008A14D0008A14D0008A14D0008C6
:10026000A14D0008A14D0008A14D0008A14D0008B6
:10027000A14D0008A14D0008A14D0008A14D0008A6
:10028000A14D0008A14D0008A14D0008A14D000896
:10029000A14D0008A14D0008A14D0008A14D000886
:1002A000A14D0008A14D0008A14D0008A14D000876
:1002B00010B5054C237833B9044B13B10448AFF3A0
:1002C00000800123237010BD3C04002400000000C6
:1002D0009C4F000808B5034B1BB103490348AFF31B
:1002E000008008BD00000000400400249C4F00086E
:1002F000844641EA000313F003036DD1403A41D331
:1003000051F8043B40F8043B51F8043B40F8043BEF
:1003100051F8043B40F8043B51F8043B40F8043BDF
:1003200051F8043B40F8043B51F8043B40F8043BCF
:1003300051F8043B40F8043B51F8043B40F8043BBF
:1003400051F8043B40F8043B51F8043B40F8043BAF
:1003500051F8043B40F8043B51F8043B40F8043B9F
:1003600051F8043B40F8043B51F8043B40F8043B8F
:1003700051F8043B40F8043B51F8043B40F8043B7F
:10038000403ABDD2303211D351F8043B40F8043B1F
:1003900051F8043B40F8043B51F8043B40F8043B5F
:1003A00051F8043B40F8043B103AEDD20C3205D32F
:1003B00051F8043B40F8043B043AF9D2043208D027
:1003C000D2071CBF11F8013B00F8013B01D30B8899
:1003D00003806046704700BF082A13D38B078DD077
:1003E00010F003038AD0C3F10403D21ADB071CBF49
:1003F00011F8013B00F8013B80D331F8023B20F8B3
:10040000023B7BE7043AD9D3013A11F8013B00F8EB
:10041000013BF9D20B7803704B7843708B78837073
:100420006046704738B50F4B0546187808B901206B
:1004300038BD4FF47A730C4AB3FBF0F31068B0FB8D
:10044000F3F000F0A1F804460028F0D10F2DEED80B
:10045000024629464FF0FF3000F064F8034B204677
:100460001D60E5E7000000240800002404000024CB
:1004700010B5032000F044F80F20FFF7D3FF044627
:1004800018B903F0E3F8204610BD0124FBE7000093
:10049000034A044B11681B780B441360704700BF7C
:1004A0000406002400000024014B1868704700BFB8
:1004B0000406002438B50446FFF7F6FF0546631C22
:1004C0001EBF044B1B78E418FFF7EEFF401BA04251
:1004D000FAD338BD00000024024A136823F0020357
:1004E0001360704710E000E0034AD2F8103118435F
:1004F000C2F81001704700BF00040058FFF7F4BFB6
:10050000074A0002D36800F4E06023F4E0631B04B0
:100510001B0C43F0BF6343F400330343D3607047C5
:1005200000ED00E0164B70B5DC684FF0FF36C4F309
:100530000224C4F10705231D042D28BF0425062B22
:1005400006FA05F38CBF033C0024002821EA0303CC
:1005500003FA04F306FA04F422EA040443EA040367
:100560004FEA0313DBB206DB00F1604000F56140A7
:1005700080F8003370BD00F00F00024A1354F9E711
:1005800000ED00E014ED00E00138B0F1807F0AD208
:10059000064BF021064A5860002082F823100722FB
:1005A00098601A6070470120704700BF10E000E0BB
:1005B00000ED00E038B50446FFF776FF054644B18C
:1005C00094F85430022B06D02023A365002384F82E
:1005D0004C30012024E02268536943F00403536146
:1005E000052384F8543023681A69900419D55A6990
:1005F000216D42F0020209065A614FF0040284F8AC
:1006000054204FF4FE42DA604FF0010284F8542087
:1006100003D5616F0A7300229A64002084F84C00AD
:1006200038BDFFF741FF401B0528DCD9A36D43F01F
:100630001003A365032384F85430236D1D06C5D52C
:10064000636F01221A73C1E7064B186910F00100AD
:1006500007D0054A5A6002F188325A60186900F0E2
:10066000010070470020005223016745044B1A69BE
:1006700042F001021A611869C04300F0010070479E
:1006800000200052084BD3F8040110F001000AD0FA
:10069000064AC3F8002102F14432C3F80021D3F81E
:1006A000040100F001007047002000523B2A1908A5
:1006B000064BD3F8042142F00102C3F80421D3F819
:1006C0000401C04300F00100704700BF0020005249
:1006D00070B50546164CFFF7E7FE461963695B07E0
:1006E00014D4626A134BD4F808011A4000F0B040E9
:1006F000104313D0104903404A68024300F0B04051
:100700004A60A362C4F80C01012070BD6A1CE5D0E8
:10071000FFF7CAFEB042E1D30320F6E7636A13F4A1
:10072000803303D04FF48033A362EEE71846ECE742
:100730000020005200003E1158040024F8B5704D0E
:1007400004462B78012B00F0D88001234FF47A70F7
:100750002B7000236B60FFF7BBFF002840F0CA80BE
:100760002668002E00F0C680664AF107D2F80431F0
:1007700043F00203C2F8043109D5D4E9011300297A
:1007800063D1D2F81C12DBB20B43C2F81C32B307A0
:1007900040F18C806769D4E9031011F001031ABF9E
:1007A00000F00C020C231A4611F0020F1EBF00F0DD
:1007B000100C43F0100342EA0C0211F0040F1EBFAC
:1007C00000F0400C43F0400342EA0C0211F0080F25
:1007D0001EBF00F0800C43F0800342EA0C0211F0CF
:1007E000100F1EBF00F4807C43F4807342EA0C02B9
:1007F00011F0200F1EBF00F4007C43F4007342EAA6
:100800000C0211F0400F1EBF00F4003C43F4003313
:1008100042EA0C0211F0800F1EBF00F4802C43F45A
:10082000802342EA0C0211F4807F16D000F00050C1
:1008300043F000530243DFF8CCC0DCF8640220EA46
:1008400003031A43CCF8642209E001299FD1D2F8AE
:100850001C12DBB221EA030397E7002BEBD111F462
:1008600000730EBF1A4607F007020723480542BF70
:1008700007F0700043F070030243080542BF07F41D
:10088000807043F480730243C9040DD507F40077E8
:1008900043F400733A431B48D0F86C1221EA030377
:1008A0001A43C0F86C2201E0002BF4D172070BD57B
:1008B000144AA169D2F8343203F0FF230B43E169F3
:1008C00043EA0143C2F83432330708D50D4A216A9E
:1008D000D2F8043223F0FF030B43C2F804324FF482
:1008E0007A70FFF7F5FE074AD2F8043123F00203CD
:1008F000C2F8043100232B70F8BD0220FCE700BFD2
:1009000058040024002000520B682DE9F74F009393
:100910004FF0B0464D4BB64603EA902301930023B7
:10092000009ADA4002D103B0BDE8F08F012202FA4A
:1009300003F9009A19EA020C00F086804C684FEA2D
:100940004308032504F0030205FA08F5571EED439A
:10095000012F34D8876805EA070ACF6807FA08F735
:1009600047EA0A078760476827EA0909C4F30017BE
:100970009F4047EA09074760C768022A05EA070956
:100980008F6807FA08F747EA0907C76019D14FEAE5
:10099000D30903F0070A4FF00F0B00EB89094FEA68
:1009A0008A0AD9F820700BFA0AFB27EA0B0B0F69A9
:1009B00007FA0AF747EA0B07C9F8207001E0032A93
:1009C000DAD1076802FA08F214F4403F05EA070595
:1009D00045EA0205056037D023F0030503F0030262
:1009E0000F2705F1B0459200D5F83085974028EAE9
:1009F0000708019F07FA02F248EA0207C5F83075B6
:100A00006FEA0C053268E70254BF2A404CEA020242
:100A1000A702CEF80020DEF8042054BF2A404CEA9A
:100A20000202A7037260D6F8842054BF2A404CEA21
:100A30000202E403CEF88420DEF8802054BF2A406E
:100A40004CEA0202C6F88020013369E77FFF2900E3
:100A500070B51A4C0546E36803F00703062B06D071
:100A6000E06800F01F00401B18BF012070BDE36864
:100A700023F01F030343E360FFF716FD0646636898
:100A80009A0705D5A5F11D00012809D90020EDE739
:100A9000FFF70AFD801BB0F57A7FF0D90120E5E76A
:100AA000FFF702FD054C0546E368DB03EED4FFF7D4
:100AB000FBFC401BB0F57A7FF6D9EFE700480258FF
:100AC00038B50B4C636923F0010318436061FFF7ED
:100AD000EBFC054663699B0701D5002038BDFFF795
:100AE000E3FC401BB0F57A7FF4D90120F6E700BFA4
:100AF00000480258024AD36843F48043D3607047E9
:100B000000480258024AD36843F40043D360704758
:100B10000048025830B5224DAC6A2A6BC4F3051068
:100B200080B3E96A11F0010102D0696BC1F3CC0115
:100B300004F00303012B26D027D3022B194B18BF37
:100B40000023C2F3080207EE901ADFED176A0132A4
:100B5000B8EEE77A07EE902AF8EEE77AE7EE267A23
:100B600006EE900AF8EEE66AB0EE677A07EE903A83
:100B7000F8EEE77A87EEA66A67EE067AFCEEE77A89
:100B800017EE900A30BD094BDBE7054C236813F0E4
:100B90002003D6D02468064BC4F3C104E340D0E759
:100BA0000044025800366E010000003900093D0083
:100BB0000090D00330B5224DAC6AAA6BC4F3053067
:100BC00080B3E96A11F4006102D0E96BC1F3CC0192
:100BD00004F00303012B26D027D3022B194B18BF97
:100BE0000023C2F3080207EE901ADFED176A013204
:100BF000B8EEE77A07EE902AF8EEE77AE7EE267A83
:100C000006EE900AF8EEE66AB0EE677A07EE903AE2
:100C1000F8EEE77A87EEA66A67EE067AFCEEE77AE8
:100C200017EE900A30BD094BDBE7054C236813F043
:100C30002003D6D02468064BC4F3C104E340D0E7B8
:100C40000044025800366E010000003900093D00E2
:100C50000090D00330B5224DAC6A2A6CC4F3055025
:100C600080B3E96A11F4800102D0696CC1F3CC0150
:100C700004F00303012B26D027D3022B194B18BFF6
:100C80000023C2F3080207EE901ADFED176A013263
:100C9000B8EEE77A07EE902AF8EEE77AE7EE267AE2
:100CA00006EE900AF8EEE66AB0EE677A07EE903A42
:100CB000F8EEE77A87EEA66A67EE067AFCEEE77A48
:100CC00017EE900A30BD094BDBE7054C236813F0A3
:100CD0002003D6D02468064BC4F3C104E340D0E718
:100CE0000044025800366E010000003900093D0042
:100CF0000090D0032DE9F0474FF00B08DFF8AC91DE
:100D00004FF47872450008FB00F8D9F82C304FF00A
:100D10008074074602FA08F20E46AC4023EA02034A
:100D2000C9F82C30D9F8003023EA0403C9F80030A0
:100D3000FFF7BAFB4FF00073824603FA05F5D9F8C6
:100D40000000284040F0818033684FEAC70E022B34
:100D50000EF1040C40F09380716800297FD1D9F81E
:100D600000204E4BC2F3C102D340B0684C4AB3FBE3
:100D7000F0F3934279D84B4A934278D84A4A934247
:100D800094BF022308234FF47C7A484A00FA0CFCF3
:100D90000AFA0EFED2F828904CEA010C4EF0030E2F
:100DA00029EA0E0E4EEA0C009062906A00F00300F1
:100DB000884271D11B20D16A03FA08F300FA08F0C7
:100DC00021EA00010B43D3623369591E7369013B69
:100DD0001B0443EA4123F16801390B43B16901392E
:100DE00043EA0163324941F83730336A591EF369E7
:100DF000013B43EA01232F4941F827301FB9D36A49
:100E000043F02003D362716A99B12B4A52F837300C
:100E100023F47F4323F0F80343EAC10342F8373059
:100E2000012352F8081C03FA08F848EA010142F8C5
:100E3000081C1E4E33681C433460FFF735FB044624
:100E400033681D4215D0002007E0FFF72DFBA0EB13
:100E50000A0032287FF673AF0320BDE8F087174BF6
:100E6000174A022908BF13467FE718238BE7102390
:100E700089E7FFF719FB001B3228E1D9ECE74FF4B3
:100E80007C72D9F8283002FA0CFC23EA0C0343F0F8
:100E90000303C9F82830E0E70120DEE70090D00323
:100EA000FF117A00FF083D007F841E0000440258B5
:100EB00030440258C04402583444025800093D00EE
:100EC00000366E012DE9F843054610B90120BDE852
:100ED000F883A74B1E699F6A1B6806F0380607F067
:100EE000030703F028580368DC072AD42B68980707
:100EF00000F185802B68D90600F1E5802B681A0780
:100F000000F111812B68990600F13A812B685C078A
:100F100000F15B816B6A002B40F0B181EB6C002B20
:100F200040F0DF81686F0028D1D0012305F1740102
:100F30000220C5F89430FFF7DDFE003018BF012015
:100F4000C5E7102E426804D0B8F1000F04D0022F7C
:100F500002D1002ACAD1B9E7B2F5803F844B03D150
:100F60001A6842F480320BE0EAB91A6822F480323F
:100F70001A601A6822F400221A601A6822F4802289
:100F80001A60FFF791FA6B680446DFF8E4918BB3BF
:100F9000D9F800309903A9D4FFF786FA001B64281A
:100FA000F6D9032093E7B2F5A02F08D11A6842F4CE
:100FB00080221A601A6822F400221A60D0E7B2F583
:100FC000502F1A6806D142F480221A601A6842F43F
:100FD0000022F2E722F480321A601A6822F480229A
:100FE0001A601A6822F40022CAE7FFF75DFA001BB4
:100FF0006428D6D8D9F800309A03F6D476E7EB689F
:101000001EB1B8F1000F2ED06FBB002B3FF45EAFC6
:10101000574A286911683FB9B8F1000F04D001F0B0
:10102000180181427FF452AF136823F0190343F093
:1010300001030343136036B912684E4BC2F3C10279
:10104000D3404D4A13604D4B1868FFF7EBF9002869
:101050007FF43CAF464A6969536823F0FE4343EA94
:101060000163536046E7424CDBB12268296922F0F4
:1010700019020B431343236063686A6923F0FE433C
:1010800043EA02636360FFF70FFA814623685B0758
:101090003FF530AFFFF708FAA0EB09000128F5D9BA
:1010A0007FE7236823F001032360FFF7FDF9814602
:1010B000236858077FF51EAFFFF7F6F9A0EB09008C
:1010C0000128F5D96DE7082E2B6A04D0B8F1000F7E
:1010D00005D0012F03D1002B7FF410AFF6E6244C8E
:1010E00083B1236843F080032360FFF7DDF90746EF
:1010F0002368DB053FF502AFFFF7D6F9C01B0128D7
:10110000F6D94EE7236823F080032360FFF7CCF97C
:1011100007462368D8057FF5F1AEFFF7C5F9C01B78
:101120000128F6D93DE7AB69114C83B1636F43F0F9
:1011300001036367FFF7B8F90746636F9A073FF546
:10114000E1AEFFF7B1F9C01B0128F6D929E7636FBB
:1011500023F001036367FFF7A7F90746636F9B0757
:101160007FF5D0AEFFF7A0F9C01B0128F6D918E72C
:10117000004402580090D00308000024040000241A
:10118000EB695C4C83B1236843F480532360FFF721
:101190008BF90746236898043FF5B8AEFFF784F94A
:1011A000C01B0128F6D9FCE6236823F48053236092
:1011B000FFF77AF90746236899047FF5A7AEFFF792
:1011C00073F9C01B0128F6D9EBE64B4A494C13686A
:1011D00043F480731360AB68012B14D1236F43F089
:1011E0000103236741F28834FFF75EF9414F8046DF
:1011F0003B6F9A073FF58EAEFFF756F9A0EB08005C
:10120000A042F5D9CDE6D3B9236F41F2883823F057
:1012100001032367236F23F080032367236F23F0E9
:1012200004032367FFF740F90746236F9B077FF509
:1012300071AEFFF739F9C01B4045F6D9B1E6052B71
:1012400008D1236F43F004032367236F23F0800347
:101250002367C3E7852B236F06D143F0040323677D
:10126000236F43F08003F3E723F001032367236F29
:1012700023F004032367236F23F08003B1E7182EC4
:1012800024D1012B3FF422AE1A4BA96C5A6BC2F346
:10129000CC0291423FF442AEDA6A22F00102DA62F5
:1012A000FFF702F90446FFF7FFF8A042FBD0114A0E
:1012B000A96C536B23F47F4323F0F80343EAC10383
:1012C0005363D36A43F00103D36227E6012305F198
:1012D000240100206B64FFF70DFD00283FF41EAED3
:1012E000F4E505F14C010120FFF704FD00283FF46F
:1012F00019AEEBE50044025800480258584B1A69F1
:1013000002F03802102A10B50FD0182A17D0002A80
:1013100040F0A380186810F0200007D01868514BE7
:10132000C0F3C10023FA00F000E04F484C4B9B692A
:1013300003F00F03072B84BF073BD84010BD996A09
:10134000986ADA6AC0F305105C6B0028EED0C4F32B
:10135000CC0402F00102624307EE902A01F003027E
:10136000012AF8EEE76A4BD017D307EE900A022A5B
:10137000DFED3E5AB7EE006AB8EEE77A58D01B6B45
:10138000C3F3080307EE903AF8EEE77AE6EEA57AA3
:1013900077EE867A9FED366A57E01A68920659D53D
:1013A000196807EE100A2F4AC1F3C1011B6BB8EE92
:1013B000C76ACA40C3F3080307EE902AF8EEE77A3B
:1013C00087EE867A07EE903A9FED286AF8EEE77A84
:1013D000E6EE867AF7EE006A77EEA67A67EE877A0F
:1013E0001F4B1B6BC3F34623013307EE103AB8EED5
:1013F000C77AC7EE876AFCEEE67A17EE900A95E7A1
:101400001B6B9FED1A7AC3F308039FED196A07EE71
:10141000903AF8EEE77AE6EE877AB7EE007A77EE62
:10142000877A07EE100AF8EEC76A86EE267AD5E7C5
:101430001B6BC3F3080307EE903AF8EEE77AE6EE8B
:10144000A57A77EE867A9FED0B6AC6EE076A67EE9D
:10145000A67AC5E7DFED087AC2E7084866E700BF6D
:10146000004402580090D00300366E01000000399D
:101470000024744A001BB74B0000000000093D0027
:101480002DE9F0410D46044610B90120BDE8F08178
:101490007E4A136803F03F038B427FD323685F07C4
:1014A00000F188801E070BD579496669086A00F04B
:1014B0007000864204D90A6A22F0700232430A623E
:1014C000D8060BD57249A669086A00F4E060864226
:1014D00004D90A6A22F4E06232430A6299060BD503
:1014E0006B49E669086A00F4E040864204D90A6A5A
:1014F00022F4E04232430A629A070BD56449E66857
:10150000C86900F00F00864204D9CA6922F00F02B0
:101510003243CA61DF075BD423689E0700F18D80E8
:101520005A490A6802F03F02AA4200F29480580722
:1015300000F19D8019070BD555496569086A00F0CF
:101540007000854204D20A6A22F070022A430A62BD
:10155000DA060BD54E49A569086A00F4E0608542B9
:1015600004D20A6A22F4E0622A430A629B060BD57F
:10157000474AE069116A01F4E041884204D2136AE3
:1015800023F4E04303431362FFF7B8FE414B1860B6
:10159000414BBDE8F0411868FEF744BF136823F0E3
:1015A0003F030B431360136803F03F038B427FF448
:1015B0006CAF73E736492669086A00F00700864277
:1015C0007FF670AF0A6A22F0070232430A6269E7C7
:1015D0002F4BA1689A6922F00F020A439A61616851
:1015E0001A6802291CD112F4003F3FF44EAF1A6969
:1015F00041F28838264E22F007020A431A61FEF7AC
:1016000053FF07463369626803F03803B3EBC20F38
:1016100082D0FEF749FFC01B4045F3D9032035E7D0
:10162000032902D112F0007FDFE7012902D112F471
:10163000807FDAE712F0040FD7E71549E668C8693A
:1016400000F00F008642BFF46BAFCA6922F00F02B0
:101650003243CA6164E70A6822F03F022A430A6003
:101660000A6802F03F02AA427FF40FAF5FE7084921
:101670002569086A00F007008542BFF45BAF0A6A7B
:1016800022F007022A430A6254E700BF00200052FA
:101690000044025808000024040000240A4B07B547
:1016A000009303F105330193FFF728FE074BDB6935
:1016B00003F00F03072B81BF02AA9B1813F8103CFD
:1016C000D84003B05DF804FB010203040044025853
:1016D00008B5FFF7E3FF044B1B6A03F00703032B76
:1016E00084BF033BD84008BD0044025808B5FFF74B
:1016F000D5FF044B1B6AC3F30213032B84BF033BC8
:10170000D84008BD0044025808B5FFF7C7FF044B96
:101710001B6AC3F30223032B84BF033BD84008BDDD
:1017200000440258054B10B51C6BFFF7F3F9C4F3E6
:1017300006440134B0FBF4F010BD00BF0044025871
:10174000054B10B59C6BFFF735FAC4F34624013402
:10175000B0FBF4F010BD00BF00440258054B10B5BB
:101760009C6BFFF727FAC4F306440134B0FBF4F096
:1017700010BD00BF00440258054B10B59C6BFFF72D
:1017800019FAC4F306640134B0FBF4F010BD00BFD5
:1017900000440258054B10B5D3F8C440FFF70AFACD
:1017A00004F007040134B0FBF4F010BD004402580B
:1017B000054B10B5D3F8C440FFF7FCF9C4F302247D
:1017C0000134B0FBF4F010BD00440258054B10B5D5
:1017D0001C6CFFF73FFAC4F346240134B0FBF4F06D
:1017E00010BD00BF00440258054B10B51C6CFFF73C
:1017F00031FAC4F306440134B0FBF4F010BD00BF6D
:1018000000440258054B10B51C6CFFF723FAC4F3D3
:1018100006640134B0FBF4F010BD00BF0044025870
:10182000054B10B5D3F8C840FFF714FA04F00704CD
:101830000134B0FBF4F010BD00440258124BD86CD8
:1018400010F040500BD11A6851071BD51A68920648
:1018500018D51B680D48C3F3C103D8407047B0F1D9
:10186000805F06D11B680A4813F4807F08BF002000
:101870007047B0F1005F04D11B68064813F4003FC5
:10188000F4E70020704700BF004402580090D003E6
:1018900000093D0000366E01F8B50446006810F4FA
:1018A00080204CD0794BE06F1A6F12F4407217D041
:1018B00000F44071914213D0754A116841F480716F
:1018C00011601268D20544D51A6F196F22F4407264
:1018D00041F480311967196F21F4803119671A6753
:1018E000B0F5807F08D0E36F684913F47C3F13D1D3
:1018F0000A6922F47C5216E0FEF7D6FD634D0646D7
:1019000041F288372B6F9B07EDD4FEF7CDFD801B8E
:10191000B842F7D9032012E008695E4A20F47C50EF
:1019200002EA131202430A6103F44073574A00208B
:10193000116F0B431367136F43F40043136723685E
:10194000DE0714D56168032947D8DFE801F00904F0
:1019500041090120F3E74D4DEA6A42F04002EA6294
:1019600028B94A4DEA6C22F003020A43EA649D0753
:101970000DD5A168102932D0202936D0002939D1BF
:1019800028B9424DEA6C22F030020A43EA64590752
:101990000DD5E16840292FD0802933D0002936D1D8
:1019A00028B93A4DEA6C22F0C0020A43EA641A07E9
:1019B00006D536492569CA6C22F040522A43CA64CA
:1019C0009F0232D5616D21B3042953D001202CE050
:1019D0002E4DEA6A42F48022C1E70120C7E72B4D71
:1019E000EA6A42F40022EA62CAE7284DEA6A42F44F
:1019F0008012F8E70120CAE7244DEA6A42F4002287
:101A0000EA62CDE7214DEA6A42F48012F8E701204C
:101A1000CDE71E4DEA6A42F40022EA6228B91B4D66
:101A2000EA6C22F004020A43EA64DE0613D5616917
:101A3000B1F1807F23D0B1F1007F05D021BB134DE0
:101A4000EA6A42F48032EA6228B9104DEA6C22F068
:101A500040720A43EA649D062ED5A269B2F5001FC2
:101A600000F0958018D802B3B2F5801F00F089808D
:101A7000012021E0054DEA6A42F48012CDE7034DD2
:101A8000EA6A42F00052DEE70120E4E7004402582F
:101A900000480258CFFFFF0FB2F5800F05D0B2F516
:101AA000A00F02D0B2F5401FE2D128B98A4DE96CEF
:101AB00021F4E0010A43EA64590606D58649E5693E
:101AC0000A6D22F040522A430A651A0606D5824959
:101AD000256ACA6C22F440322A43CA64DF0510D555
:101AE000616A39B1B1F5802F56D17B4DEA6A42F077
:101AF0008042EA6228B9784DEA6C22F480220A43D7
:101B0000EA649E050FD5A16AB1F5800F46D0B1F504
:101B1000000F49D000294CD128B96F4D2A6D22F40D
:101B200040020A432A651D050DD5E16AB1F5805FC3
:101B300049D040D8002944D128B9674D2A6D22F4F4
:101B400040520A432A6559050DD5216BB1F5807FB6
:101B500047D03ED8002942D128B95F4D2A6D22F4E2
:101B600040720A432A65DA0451D5626BB2F5003F30
:101B700060D03CD8002A43D0B2F5803F54D0012039
:101B800045E0554DE96A41F48031E9628DE7524DF7
:101B9000E96A41F00061F8E70120B2E74E4DEA6AD8
:101BA00042F04002EA62B7E74B4DEA6A42F4803203
:101BB000F8E70120B7E7B1F5005FBDD0B1F5405FB0
:101BC000BAD00120BFE7444DEA6A42F00052EA620F
:101BD000B2E7B1F5007FBFD0B1F5407FBCD00120A6
:101BE000C1E73D4DEA6A42F00052EA62B4E7B2F55D
:101BF000802F05D0B2F5A02F02D0B2F5403FBED164
:101C000028B9354D296D21F4E0210A432A659F0446
:101C100025D5A26BB2F5007F34D010D8C2B1B2F591
:101C2000807F29D001201AE02B4DE96A41F48031F0
:101C3000E962E5E7284DE96A41F00051F8E7B2F5BD
:101C4000806F05D0B2F5A06F02D0B2F5407FE9D128
:101C500028B9214DA96D21F4E0610A43AA655E040B
:101C600025D5E26BB2F5005F31D010D8C2B1B2F524
:101C7000805F26D001201AE0174DE96A41F48031D7
:101C8000E962E5E7144DE96A41F00051F8E7B2F581
:101C9000804F05D0B2F5A04F02D0B2F5405FE9D138
:101CA00028B90D4DA96D21F4E0410A43AA651D0430
:101CB00020D5216C052932D8DFE801F015102C154C
:101CC0001515054DE96A41F48031E962E8E7024DF6
:101CD000E96A41F00051F8E700440258924DEA6A7F
:101CE00042F40032EA6228B98F4DAA6D22F0070251
:101CF0000A43AA65D90304D58B49CA6A42F0005247
:101D0000CA629A0319D5A16C59B1B1F1006F0DD017
:101D1000012012E0844DEA6A42F08052E2E701209D
:101D2000E8E7814DEA6A42F00052EA6228B97E4D46
:101D3000EA6C22F000620A43EA641F0317D5E26CE2
:101D4000B2F5003F2BD005D8F2B1B2F5803F21D0DB
:101D500001200CE0B2F5403F02D0B2F5802FF7D160
:101D600028B9714D696D21F4E0210A436A65DE02EC
:101D70002AD5226DB2F5001F3BD015D872B3B2F54B
:101D8000801F31D001201FE0674DE96A41F040011A
:101D9000E962E5E7644DE96A41F48031F8E7624DB4
:101DA000E96A41F00061F3E7B2F5800F05D0B2F5C2
:101DB000A00F02D0B2F5401FE4D128B95A4D696D89
:101DC00021F4E0010A436A655D0224D5A16EB1F1F8
:101DD000807F33D012D859B301201CE0524DE96AFC
:101DE00041F04001E962E8E74F4DE96A41F4803192
:101DF000F8E74D4DE96A41F00061F3E7B1F1007F8A
:101E000021D0B1F1407FE7D128B9474D2A6D22F0AA
:101E100040720A432A65190227D5A26DB2F5007FE8
:101E200039D015D862B3B2F5807F2FD001201CE0E5
:101E30003D4DEA6A42F04002EA62E5E73A4DEA6A5D
:101E400042F48022F8E7384DEA6A42F00052F3E7A4
:101E5000B2F5407F02D0B2F5806FE7D128B9324D9C
:101E6000696D21F4E0610A436A65DA0123D5E26D08
:101E7000202A36D014D84AB3102A2DD001201AE0D7
:101E8000294DE96A41F04001E962E7E7264DE96A38
:101E900041F48031F8E7244DE96A41F00061F3E74D
:101EA000302A01D0402AE9D128B91F4D296D21F0EF
:101EB00070010A432A659F0125D5226E202A35D05C
:101EC00014D8CAB1102A29D001201CE0164DE96AA5
:101ED00041F04001E962E7E7134DE96A41F48031DE
:101EE000F8E7114DE96A41F00061F3E7402A03D0B9
:101EF000502A01D0302AE7D128B90B4D696D21F065
:101F000070010A436A655E0122D5626E202A2FD0D5
:101F100011D8B2B1102A25D0012019E0024DE96A8A
:101F200041F40031E962E7E7004402584D4DE96AA7
:101F300041F08051F6E7402A03D0502A01D0302AE0
:101F4000EAD128B9474DA96D21F070010A43AA656D
:101F5000DD001ED5E16E05292AD8DFE801F0130E59
:101F6000241313133F4DE96A41F40031E962E8E7B5
:101F70003C4DE96A41F08051F8E73A4DEA6A42F493
:101F80000032EA6228B9374D6A6D22F007020A432F
:101F90006A6599001AD5216F05294BD8DFE801F051
:101FA0000F0A450F0F0F2F4DEA6A42F08052E8E703
:101FB0000120EEE72B4DEA6A42F40032EA6228B9CA
:101FC000284D2A6D22F007020A432A655A000FD5D0
:101FD000616FB1F5805F04D0B1F5005F2CD00029AE
:101FE00030D128B91F4DEA6C22F440520A43EA640A
:101FF000002B0CDAA16FB1F5804F2DD024D849BB4E
:1020000028B9184DEA6C22F440420A43EA641B01E5
:1020100007D5144AD4F88010136923F400430B4306
:102020001361003018BF0120F8BD0E4DEA6A42F07E
:102030008052C3E70120C9E70A4DEA6A42F08052A4
:10204000EA62CEE70120D3E7B1F5004FD8D0B1F571
:10205000404FD5D00120DAE7024DEA6A42F08052C3
:10206000EA62CDE700440258B0F5004F08B500F031
:102070002F8300F28680802800F0F88146D8082857
:1020800000F0588121D8022800F01781042800F0C0
:102090003781012840F04885C84BD3F8002102F46D
:1020A000E042B2F5A04F00F00481DA6C02F00302C6
:1020B000022A00F0E780032A00F0EC80012A00F0F9
:1020C000D980BDE80840FFF7E9BA202800F0638115
:1020D000402800F0A881102840F02685B74BD86C26
:1020E00000F04070B0F1807F00F04D81B0F1007FD2
:1020F00000F09583002840F02085DB6A13F4803FD0
:1021000000F0D680BDE80840FFF71ABBB0F5006FBD
:1021100000F02B8216D8B0F5007F00F0D881B0F522
:10212000806F00F0EF81B0F5807F40F0FD84A34B1D
:10213000D86C10F4802000F0C381002840F0B781F3
:102140000020B5E0B0F5005F00F05782B0F5804F99
:1021500000F08282B0F5805F40F0E684974A136D0C
:1021600003F4E023B3F5003F00F03D8200F2278244
:10217000002B00F0DF81B3F5803F00F08F8200205C
:1021800096E0B0F5000F00F0928336D8B0F5002F3E
:1021900000F02F8312D8B0F5003F00F0E182B0F5D7
:1021A000802F00F0EA82B0F5803F40F0BD84834B81
:1021B000DB6A9A0000F1EB80002079E0B0F5001FA7
:1021C00000F03F83B0F5800F00F04683B0F5801F2C
:1021D00040F0AA84794B586D00F4E000B0F5001F80
:1021E00000F0878300F22583002800F07C83B0F59F
:1021F000801F00F07C8300205AE0B0F1805F00F087
:10220000F6831CD8B0F1007F00F07583B0F1806FC9
:1022100000F0A983B0F1807F40F08684674B186D91
:1022200000F07000202800F0648300F2568300283C
:1022300000F05983102800F05A83002038E0B0F1F4
:10224000804F00F02B84B0F1004F00F04A84B0F1D1
:10225000005F40F06984594B1A6D02F00702052AAD
:1022600000F29384DFE812F066014A025302FA0397
:102270000B041204D86A10F0400019D0BDE80840E1
:10228000FFF750BAD86A10F4802011D0BDE808409A
:10229000FFF772BA186810F0040009D0186810F03F
:1022A000200005D01868464BC0F3C10023FA00F0A7
:1022B00008BDFFF7F3F98008FAE7404AD2F8003189
:1022C00003F07003402BF4D0D36C03F03003102BD9
:1022D00006D0202B0CD0002B3FF4F3AE0020E7E714
:1022E000D36A190340F12384BDE80840FFF752BACE
:1022F000D06A10F48010DBD0BDE80840FFF758BA70
:102300002E4BD3F8002102F4E062B2F5806FD0D0FA
:10231000DA6C02F0C002402A07D0802A00F09A82CC
:10232000002A3FF4CEAE0020C2E7D86A10F40020A5
:10233000BED0D9E7214BD86C00F04050B0F1805F9F
:1023400013D0B0F1005F17D0002840F0F3831A6873
:102350005207ADD51B689906AAD5184B1868184BBB
:10236000C0F3C10023FA00F0A2E71B68154813F47C
:10237000807F08BF00209BE71B68134813F4003FD1
:1023800008BF002094E7D86A10F0005090D0BDE854
:102390000840FFF737BA0949CB6C0A4603F4E0035B
:1023A000B3F5001F1ED011D8002B3FF48AAEB3F551
:1023B000801F00F0738100207AE700BF00440258BC
:1023C0000090D00300093D0000366E01B3F5800F88
:1023D00011D0B3F5A00F15D0B3F5401FEBD14BF6DC
:1023E000803065E7C86A10F000603FF461AFBDE877
:1023F0000840FFF7EBB90B68AD4813F4807F08BFC6
:10240000002055E7086810F004003FF451AF086859
:1024100010F020003FF44CAF0868A64BC0F3C10099
:1024200023FA00F044E7A44B186D00F04050B0F1DF
:10243000805F0CD0B0F1005F11D0002840F08083A5
:102440001B6F13F0020F18BF4FF4004030E75B6FB3
:1024500013F0020F0CBF00204FF4FA4028E71B686E
:10246000934813F4807F08BF002021E7924BDA6C79
:1024700002F44032B2F5803F04D0B2F5003F08D0FC
:10248000002015E71B688D4813F4003F08BF0020AB
:102490000EE7D86C10F4802002D040B9002007E786
:1024A0001B6813F4003F854B18BF184600E7D86A35
:1024B00010F080403FF4FCAEBDE80840FFF7B0B933
:1024C0001B6813F4003F7D4B18BF1846F0E67A4BAB
:1024D000186D00F44000B0F5800F3FF4CBAEB0F5BE
:1024E000000F09D0002840F02E831B6813F4003F32
:1024F000724B18BF1846DBE6DB6ADA033FF502AE23
:102500000020D5E66C490B6D03F44073B3F5807F72
:1025100014D002D873B10020CAE6B3F5007F13D0FF
:10252000B3F5407FF7D10B68614813F4807F08BF93
:102530000020BDE6BDE80840FFF7CAB8CB6A9B00A3
:102540003FF525AF0020B3E6086810F004003FF423
:10255000AFAE086810F020003FF4AAAE0868554BF3
:10256000C0F3C10023FA00F0A2E6534A136D03F44E
:102570004053B3F5805F36D003D8002BDAD000206B
:1025800096E6B3F5005F09D0B3F5405FF7D1136865
:10259000474813F4807F08BF002089E6106810F0D8
:1025A00004003FF485AE1368980640F1CF82424B99
:1025B0001868404BC0F3C10023FA00F078E6B3F589
:1025C000802F12D0B3F5A02F00F02981B3F5403F42
:1025D0007FF4D5AD384B1B6F13F0020F0CBF0020FA
:1025E0004FF4004064E6D06ACEE6536F13F0020F5A
:1025F0000CBF00204FF4FA405AE62F498B6D0A4673
:1026000003F4E063B3F5007F1CD005D8B3B1B3F594
:10261000807F43D000204BE6B3F5806F14D0B3F534
:10262000A06F00F0FC80B3F5407FF3D10B6F13F087
:10263000020F0CBF00204FF4004039E6BDE808400F
:10264000FFF762B8C86A9FE64B6F13F0020F0CBF2A
:1026500000204FF4FA402BE617498B6D0A4603F42D
:10266000E043B3F5005F1DD006D8002BE6D0B3F5EC
:10267000805F13D000201BE6B3F5804F20D0B3F568
:10268000A04F00F0CC80B3F5405FF3D10B6F13F097
:10269000020F0CBF00204FF4004009E6D06A10F48E
:1026A00080302DE5CB6A99003FF571AE0020FFE543
:1026B00000093D000090D0030044025800366E012E
:1026C0004B6F13F0020F0CBF00204FF4FA40EFE500
:1026D000AC4B9A6D02F00702052A00F23A8201A182
:1026E00051F822F03D260008FD2600080F270008BB
:1026F000212700084327000851270008D86A10F452
:1027000000303FF4D5ADBDE80840FFF727B8D86AE0
:1027100010F080503FF4CCADBDE80840FFF764B83E
:10272000186810F004003FF4C3AD186810F02000E2
:102730003FF4BEAD1868944BC0F3C10023FA00F01B
:10274000B6E51B68914813F4807F08BF0020AFE511
:102750001B6F13F0020F0CBF00204FF40040A7E5E1
:10276000884BD86C10F0006003D0002857D10020AF
:102770009EE5DB6A13F0005F08E6824A136F03F4FC
:102780004073B3F5407F17D113697E4B1A6F02F483
:102790004072B2F5407F40F0DF81186810F40030DD
:1027A0003FF486AD1869C0F30520012840F2D781B7
:1027B000774BB3FBF0F07BE5106F00F44070B0F5A1
:1027C000807F06D0B0F5007F0BD000283FF470ADBD
:1027D000DBE7136F13F0020F0CBF00204FF4004033
:1027E00066E5536F13F0020F0CBF00204FF4FA4060
:1027F0005EE5644B586D00F4E020B0F5003F78D002
:1028000006D800286FD0B0F5803F0CD000204FE5EF
:10281000B0F5403F00F0A681B0F5802FF6D1BDE8BD
:102820000840FFF70BB8DB6ADB033FF56BAC002019
:102830003EE5B0F5401F00F09981B0F5800FEED075
:10284000D9E4504BD86C10F0040003D1DB6A13F4C8
:10285000002F6DE5D86A4CE54A4A106D134600F02A
:102860004070B0F1807F1CD003D800283BD00020FE
:102870001EE5B0F1007F3FF486ADB0F1407FF6D1A8
:10288000106810F004003FF413AD106810F0200041
:102890003FF40EAD10683C4BC0F3C10023FA00F0CA
:1028A00006E5D36A58033FF5F1AC002000E5354B4F
:1028B000586D00F4E060B0F5007F1AD005D890B1F3
:1028C000B0F5807F13D00020F2E4B0F5407F00F037
:1028D0005181B0F5806FA2D0F5E7302800F04E812D
:1028E00040289CD0A9E4DB6A13F0400FC5E4D86A05
:1028F000D5E6D86A77E523494B6D0A4603F07003A5
:10290000202B20D004D8D3B1102B5AD00020CFE4F4
:10291000402B1AD0502B1FD0302BF7D1086810F065
:1029200004003FF4C5AC086810F020003FF4C0ACD0
:102930000868154BC0F3C10023FA00F0B8E4BDE805
:102940000840FEF7D3BEC86AE2E60B680F4813F4EE
:10295000807F08BF0020ABE40B680D4813F4003FF4
:1029600008BF0020A4E407498B6D0A4603F07003FA
:10297000202B28D00ED8002B3FF460AE102B20D097
:10298000002095E4004402580090D00300093D0067
:1029900000366E01402B1CD0502B21D0302BEFD1B4
:1029A000086810F004003FF483AC086810F02000C1
:1029B0003FF47EAC0868794BC0F3C10023FA00F005
:1029C00076E4D06A9BE6CB6AD9003FF5A5AE00203D
:1029D0006EE40B68724813F4807F08BF002067E440
:1029E0000B68704813F4003F08BF002060E46E4B92
:1029F0005A6D02F00702052A00F2C48001A151F8C5
:102A000022F000BF3F290008FD2600080F2700081C
:102A10001D2A00083F2A00084D2A0008186810F0F7
:102A200004003FF445AC186810F020003FF440ACBF
:102A300018685A4BC0F3C10023FA00F038E41B6851
:102A4000574813F4807F08BF002031E41B6F13F058
:102A5000020F0CBF00204FF4004029E4186810F06A
:102A600004003FF425AC186810F020003FF420ACBF
:102A700018684A4BC0F3C10023FA00F018E41B6841
:102A8000474813F4807F08BF002011E41B6F13F048
:102A9000020F0CBF00204FF4004009E4424BD86CF9
:102AA00000F44050B0F5805F0CD0B0F5005F11D05D
:102AB00000286DD11B6813F4003F3A4B18BF18462D
:102AC000FFF7F6BB1B68394813F4003F08BF00202E
:102AD000FFF7EEBBDB6ADA003FF51EAE0020FFF722
:102AE000E7BB314BD86C00F44040B0F5804F0CD0C0
:102AF000B0F5004F10D000284DD11B6813F4005FD3
:102B00002B4B18BF1846FFF7D3BBDB6ADB003FF542
:102B100003AE0020FFF7CCBB1B68224813F4003F34
:102B200008BF0020FFF7C4BB0020FFF7C1BB002097
:102B3000FFF7BEBB0020FFF7BBBB0020FFF7B8BB11
:102B40000020FFF7B5BB0020FFF7B2BB0020FFF766
:102B5000AFBB0020FFF7ACBB0020FFF7A9BB0020F4
:102B6000FFF7A6BB4BF68030FFF7A2BB4BF68030D9
:102B7000FFF79EBB4BF68030FFF79ABB4BF68030D9
:102B8000FFF796BB0020FFF793BB0020FFF790BB39
:102B90000020FFF78DBB0020FFF78ABB0090D00319
:102BA00000093D0000366E0100440258001BB700CA
:102BB000006CDC02034AD2F800311843C2F800016D
:102BC000704700BF004402582DE9F04704682368AD
:102BD00023F04053236083682BB923684A6823F0AD
:102BE0004043134323600B68022B4BD104F5C072A2
:102BF00004F5C47604F5C87504F5D0738F6C1760BE
:102C0000CF6A67B18F6A1F604F6BCB6AD2F800C082
:102C10003B430F6B3B432CF47C173B4313603368FF
:102C20004F6C23F01F033B4333608B6B23B10E6863
:102C300016B9CE6B013E2664D1F80CA0D1F81C90D9
:102C4000BAF1000F76D0D1E904E8B9F1000F47D00E
:102C50001768D1E9086C4BB343EA0A0040EA09035C
:102C6000086C43EA080343EA0E0343EA0C033343C8
:102C700003433E483840034313608B682B608B69E5
:102C8000A36440E0032B01BF04F5A07204F5A47611
:102C900004F5A87504F5B0731FBF04F5807204F540
:102CA000847604F5887504F59073A7E74AEA09036A
:102CB00027F47C5743EA080327F03F0743EA0E0353
:102CC00043EA0C0333433B431360C36AB3F1805FB1
:102CD000D3D14B69082BD0D1136843F00063CBE705
:102CE000A3B143EA0A0310680C6C43EA080343EA01
:102CF0000E0320F0706E23432EF03F0E43EA0E03C6
:102D000013608B682B600020BDE8F08714684AEAE6
:102D1000080324F03F0443EA0E0323431360C36A0D
:102D2000B3F1805FEDD14B69082BEAD1136843F012
:102D30000063E5E7B9F1000F14D01068D1E9085637
:102D400063B143EA090320F0706033432B430D6CF9
:102D50002B4320F47C500343136090E749EA0603B9
:102D60002B43F6E7082383650120CDE7C0C0FFF0C1
:102D70002DE9F041069D04460F4616469846216807
:102D80000A6A3A4214BF01220022B24201D1002055
:102D900011E06B1CF4D0FDF787FBA0EB0800A84204
:102DA00001D8002DEBD14FF4007303206365A36DB0
:102DB00043F00103A365BDE8F0810000F7B50446C8
:102DC000FDF772FB0546002C00F086800026A66504
:102DD000676D002F71D1204600F05CFCE269E1686C
:102DE00041F288302368114322699E6841EA02411A
:102DF0003A4AE065324011436269013A41EA0221F0
:102E00009960DA68216A22F4E0220A43216BDA60D1
:102E10001A6922F4F81242EA0142616B1A611A69D6
:102E200022F0FF020A431A61A26B5A6162681968B4
:102E3000013A21F47C5141EA02213A4619602B46BD
:102E4000009020212046FFF793FF0646002834D14A
:102E50002268616AD36823F0FF030B43D360204BE1
:102E60009A422DD003F5A0439A4229D02368E06B03
:102E70001968A26821F08071024321F040010A43E1
:102E80001A60D3F80811D4E90A2021F0A0410243C6
:102E90000A43C3F808211A6842F001021A60A269C5
:102EA000022A03D19A6842F002029A60E368B3F101
:102EB000806F0CBF012302236365304603B0F0BD71
:102EC000E36D00222021204600932B46FFF750FFA0
:102ED0000028CBD00646F0E70126EEE7FCC0E0F87C
:102EE00000500052F7B504460D461746FDF7DCFAD0
:102EF000636D0646022B07D1E368B3F1806F09D1F9
:102F000010230120A3651FE0142B1FD12B68023B67
:102F1000012BF5D800973346002220212046FFF7E9
:102F200027FF70BBA06529462046FFF74DFE58B924
:102F3000AB6B9BB933460122009702212046FFF775
:102F400017FF236802225A6203B0F0BD242BD7D1A9
:102F50002B6823F00203012BD2D1DBE72B680BB9DE
:102F6000042305E0012B05D1636D242BF8D0142335
:102F70006365E9E7022BE7D1636D142BF0D02423BE
:102F8000F6E70220E0E72DE9F341884604461746BC
:102F9000FDF78AFA0646B8F1000F03D10823A365AE
:102FA00001202FE0636D042B2FD125682B6CC4F812
:102FB00040800133A364A36C63642B6823F0405307
:102FC0002B6000973346012204212046FFF7D0FEF4
:102FD000C0B9236C1B7885F85030236C013323640F
:102FE000A36C013BA364A36C002BEAD1009733468A
:102FF000012202212046FFF7BBFE18B902232268F6
:103000005362636502B0BDE8F0811023C7E72DE984
:10301000F341044688461746FDF746FA25680646FA
:10302000AA6CD5F81011B8F1000F03D10823A365DD
:10303000012035E0636D042B3DD12B6CC4F840803A
:103040000133A364A36C63642B6823F0405343F003
:1030500080532B60E368B3F1806F24D1AA6400979A
:103060003346012206212046FFF782FEC0B995F8BB
:103070005020236C1A70236C01332364A36C013B32
:10308000A364A36C002BEAD10097334601220221EE
:103090002046FFF76DFE18B902232268536263656C
:1030A00002B0BDE8F081D5F8003113F4E06FD5D15E
:1030B000C5F81011D3E71023B9E72DE9F74304460B
:1030C00089461646FDF7F0F9236805469F6CD3F84C
:1030D0001081636D042B41D1D9F80C30B3F5800F0A
:1030E0003CD103460096002220212046FFF740FEF7
:1030F000002837D12368D9F80020C3F88820D9F8F0
:103100000420C3F88020D9F81020C3F89020196853
:10311000D9E9022021F04351024342F000520A4310
:103120001A60E268B2F1806F10D19F6400962B465E
:10313000012208212046FFF71BFE20B92368082240
:103140005A620223636503B0BDE8F083D3F800211F
:1031500012F4E06FE9D1C3F81081E7E710230120F2
:10316000A365F0E70220EEE737B504460D46FDF70C
:103170009BF90346626D042A21D1E26D202120468D
:1031800000920022FFF7F4FDB8B92968882322686D
:103190000829636508D16B68C2F830311023536287
:1031A000136843F480131360136841F0405123F017
:1031B000405323F008030B43136003B030BD1023CA
:1031C0000120A365F9E773B50446FDF76DF90546DF
:1031D000636D13F00C0F40D02368186810F00400E2
:1031E0000FD01A68E06C22F004021A60FDF7E2F9D1
:1031F00008B10423A365206DFDF7DCF908B10423B1
:10320000A36523681A6A12F0200F1A681FD042F0D3
:103210000202022120461A600122E36D00932B4630
:10322000FFF7A6FD88B923680226024620215E62C8
:103230002046E36D00932B46FFF79AFD28B92268DC
:10324000136823F040531360666502B070BD22F02E
:1032500040521A6002236365F7E710230120A3653B
:10326000F3E700003C4B1A6812F0020230B518BFB9
:10327000012287B001921A68D20600D51B68364B2E
:103280001C681A6804F00104C2F34002944214BF9F
:103290000022012204921A68D50600D51B682F4A25
:1032A000136813F0010304D0136823F001031360C3
:1032B00001232B4A1468E40705D5146843F0020380
:1032C00024F001041460244A002400681460146887
:1032D0008D6824F47F04013D44EA054414601F4CCA
:1032E000A0422AD148680190086820B1116821F0F5
:1032F0003001014311600199049A914204D11648AA
:10330000026842F001020260012904D112490A68F0
:1033100042F002020A60DA0704D510490A6842F056
:1033200001020A6013F0020005D00D4A0020136864
:1033300043F00103136007B030BD094CA04208D12F
:103340004868049008680028D5D0116821F0500121
:10335000CFE70120EFE700BF00B400520050005259
:1033600000A0005210B5B0B09C22002109A801F0C5
:103370003DFD2022002101A801F038FD0120FDF7CC
:103380009FFB08B172B6FEE701214FF4803364223F
:103390000424CDE909130223CDE91613062128934D
:1033A0002B93CDE91442CDE91E123222CDE9292317
:1033B0001822CDE91A30CDE92430CDE92E3009A804
:1033C000CDE91233CDE91833CDE91C33CDE92033F3
:1033D000CDE92233CDE92633CDE92C23FDF772FD6B
:1033E00008B172B6FEE703233F224021039001A8F3
:1033F000CDE901230823CDE904344FF48063CDE9FE
:1034000006134FF4804336210893FEF739F808B1CC
:1034100072B6FEE730B010BD804B5A6912F400322C
:1034200080B590B011D1BFF34F8FBFF36F8FC3F84A
:103430005022BFF34F8FBFF36F8F5A6942F40032AF
:103440005A61BFF34F8FBFF36F8F744A536913F400
:10345000803328D1C2F88430BFF34F8FD2F8803048
:1034600043F6E076C3F3C904C3F34E33A5075B010B
:1034700003EA060C284621464CEA0007013900F110
:103480004040C2F860724F1CF6D1203B13F1200F70
:10349000EED1BFF34F8F536943F480335361BFF3D1
:1034A0004F8FBFF36F8FFCF7E3FF5D4CFFF75AFFC1
:1034B0005C4B02254FF0C06ED3F8402101264FF03F
:1034C0008058204642F40052C3F84021D3F84021EE
:1034D0000292029AD3F8402142F48042C3F840217C
:1034E000D3F840210392039AD3F8402142F40042DA
:1034F000C3F84021D3F840210492049AD3F8342130
:1035000042F00102C3F83421474AD3F83431C4E908
:10351000002515220193019B0023C4E903E24FF427
:1035200040320793A360E361CDE90533C4E9056345
:10353000C4E908230A22A362E363C4E90B82C4E955
:103540000D33FFF73BFC08B172B6FEE7102741F2DE
:10355000883205A9CDE905702046FFF783FE08B142
:1035600072B6FEE7314C042331494FF0807C07905E
:10357000A060E063C4E900131723CDE90500C4E9A6
:103580000550C4E90700C4E90900C4E90B80C4E997
:103590000D002046C4E903C3FFF710FC08B172B662
:1035A000FEE705A941F288322046CDE90576FFF70E
:1035B00059FE014608B172B6FEE72C2205A801F0BB
:1035C00015FCFDF741F808B172B6FEE7FDF75AF8B1
:1035D00008B172B6FEE74FF4447341F2320205A817
:1035E0000595CDE908234FF400730A93FDF7A6F87B
:1035F00008B172B6FEE7FDF75BF808B172B6FEE7F8
:10360000FDF734F808B172B6FEE700F001F900F0FA
:103610005FFA08B172B6FEE7FEE700BF00ED00E01A
:103620000806002400440258005000526806002496
:1036300000A0005272B6FEE7FEE7FEE7FEE7FEE7F7
:10364000FEE7704770477047FCF722BF07B50420BC
:10365000FDF7FEF908B1FFF7EDFF0D4BD3F854214C
:1036600042F00202C3F85421D3F854310193019B74
:10367000FDF740FAFDF746FA4FF40030FCF73EFF45
:103680004FF4802003B05DF804EBFCF737BF00BFB8
:1036900000440258F0B5AFB004461422002108A837
:1036A00001F0A4FB842200210DA801F09FFB2368F8
:1036B0004B4A934253D102230DA80D9310230F932D
:1036C000FEF7EAF808B1FFF7B5FF464A1368013381
:1036D000012B1360444B09D1D3F8342142F48042CA
:1036E000C3F83421D3F834210192019AD3F834215C
:1036F00002270026032542F02002092408A93B489E
:10370000C3F83421D3F834210292029AD3F840212D
:1037100042F48042C3F84021D3F840210392039A37
:10372000D3F8402142F40042C3F84021D3F840319D
:103730000C940493049B1D23CDE90A65CDE9083759
:10374000FDF7E2F84FF6FF7308A929480C94CDE97C
:103750000837CDE90A65FDF7D7F82FB0F0BD254A47
:103760009342FAD104230DA80D9340231093FEF742
:1037700093F808B1FFF75EFF1A4A13680133012B73
:103780001360194B09D1D3F8342142F48042C3F8B5
:103790003421D3F834210592059AD3F8342100213D
:1037A000154842F48052C3F83421D3F834210692EC
:1037B000069AD3F8402142F40052C3F8402140F663
:1037C0007F72D3F840310793079B0223CDE908238A
:1037D0000323CDE90A13092308A90C93BBE700BF13
:1037E000005000527004002400440258003802586F
:1037F000003C025800A0005200340258034AD2F89C
:10380000883043F47003C2F88830704700ED00E060
:1038100010B501200224FFF7CDF91E4B00214FF413
:10382000A072184601F0E2FA1B4A034680F8A04055
:10383000426003220272194AC0F8A4201822042010
:10384000C3F80021164A83F8A800C3F80421154ADA
:1038500083F81A01C3F808214CF24002A3F81221A0
:1038600040F20242A3F814214FF49462A3F8162107
:10387000202283F81821FEF7F7FB0146002000F014
:1038800013F82046FEF7F0FB01460120BDE810408A
:1038900000F00AB8C80600246806002408060024C0
:1038A00000C2EB0B0140400801280A4610B51DD8A4
:1038B000A024104B6043195C1C1821B102290ED0C2
:1038C0006FF0010007E00C30217A0344606800F0DB
:1038D00057FE08B9002010BD6FF00200FBE70C3066
:1038E000217A0344606800F026FFF2E76FF00400DD
:1038F000F1E700BFC8060024012810B514D8A023A2
:103900000B4A4343D45C24B1022C08D06FF0010071
:1039100004E00C33D01800F089FE002010BD0C33F9
:10392000D01800F0A3FEF8E76FF00400F6E700BF40
:10393000C8060024012808B523D8A023144A43430D
:10394000D05C022814D003280AD0E8B903F10C0097
:10395000104451B900F06FFE28B16FF0020001E091
:103960004FF0FF3008BD0020FCE700F076FEF3E7E3
:103970000C33981811B900F07EFEEDE700F09CFEC4
:10398000EAE76FF00400EDE76FF00100EAE700BF3F
:10399000C8060024012810B519D8A022104B02FB3C
:1039A00000F41C5D0CB1022C14D102FB00300D4A56
:1039B00043681B68934204D14FF0104300200B6012
:1039C00010BD094A934208D14FF0E043F6E76FF08B
:1039D0000400F5E76FF00100F2E76FF00200EFE797
:1039E000C80600240050005200A00052002110B56B
:1039F0000846FFF79FFF421C0ED000280CBF002492
:103A0000032400210120FFF795FF431C06D0002866
:103A100018BF0324204610BD0424F2E70120FFF75D
:103A20006BFFF7E7F7B5002001A9FFF7B3FF0446E6
:103A3000002848D1FCF750FDBFF34F8FBFF36F8FC5
:103A4000224B5A6922F400325A61C3F85042BFF344
:103A50004F8FBFF36F8FC3F88440BFF34F8F5A6906
:103A600022F480325A61BFF34F8FD3F8802043F69F
:103A7000E076C2F3C904C2F34E32A507520102EA4E
:103A8000060C284621464CEA0007013900F1404067
:103A9000C3F874724F1CF6D1203A12F1200FEED108
:103AA000BFF34F8FBFF36F8FEFF3108172B6019AA0
:103AB0009A605368126882F3088881F310889847E7
:103AC000002003B0F0BD0420FBE700BF00ED00E0E4
:103AD00008B5FFF78BFF18B9BDE80840FFF7A2BF94
:103AE00008BD000070B50F4B88B0024601AC03F171
:103AF00018061868083353F8041C2546B34203C55A
:103B00002C46F6D1092A1B882B809BBF08AB0648A0
:103B1000002003EB42029CBF32F81C3C584308B023
:103B200070BD00BFB44F000840420F004FF0AA33F1
:103B30000A4610B50B600C464B600823002100F0CC
:103B400050FF30B92068044B984214BF0420002075
:103B500010BD0320FCE700BF534644500123F7B5D6
:103B60008DF801300223002405468DF8023003232E
:103B700000F15C060E4F8DF8033005238DF80040F0
:103B80008DF804301DF8043032460021284685F8AF
:103B90005C3000F053FE48B939462846FFF7C6FFAF
:103BA00010B10134052CEDD103B0F0BD0E20FBE7C0
:103BB0006C050024002313B514466A46CDE9003392
:103BC000082300F00EFF002876D19DF805309DF8FF
:103BD00006101B029DF80320206043EA01439DF874
:103BE000041022720B4363609DF8073059B200291C
:103BF0000ADD13F0010303D00123236002B010BDDE
:103C0000022222600020F9E79DF80000C1075CBF96
:103C100004212160FF2BF5D10F284AD019D806289E
:103C200032D00DD8032829D005282BD00028E9D17F
:103C3000102A4FF0080338BF102223602272DDE7FC
:103C40000A282AD00C282BD00928DBD14FF4006396
:103C500009E088281ED008D8842811D0872816D0DB
:103C60008128CFD110232360CCE78D281BD08E284C
:103C70001CD08B28C6D14FF40053F4E72023F2E781
:103C80004023F0E78023EEE74FF48073EBE74FF437
:103C90000073E8E74FF48063E5E74FF48053E2E711
:103CA0004FF48043DFE74FF40043DCE74FF4803309
:103CB000D9E74FF40033D6E703209FE72DE9F0471B
:103CC0000024DFF8DC80324D4FF00C09C0F88C4046
:103CD0000646782221462E4801F088F898F80630EA
:103CE000671CE4B20133F900A3420ED8DFF8B480B8
:103CF0000027DFF8B49008F1040AFCB20C236343F8
:103D0000E858EA1888B9BDE8F08709FB04F43046A2
:103D10002A19FFF74FFF0028F5D1D6F88C302A5921
:103D20003C461343C6F88C30D8E78028137A2AD053
:103D300010D8082823D0402827D00C2301375C4313
:103D40002B59082B02BF98F8413003F03F03C6F807
:103D50009030D2E7B0F5007F04D0B0F5805FECD1B1
:103D60000C4A00E00C4A0C219B00304601FB045138
:103D7000496800F036FE0028DFD00B20C3E7C8F802
:103D800000305246EFE74A46EDE7044AEBE700BF52
:103D90008C050024DC040024FC04002474040024AA
:103DA0006C0500247C040024740500242DE9F041F6
:103DB00000230546DFF8D080314E98F806205F1CBE
:103DC000DBB20132F9009A4205D92D4A2846FFF7A5
:103DD000F1FE044618B10B242046BDE8F08132689C
:103DE0003B46082AE9D1337A2846264F9B00716862
:103DF0003A1D00F0F6FD0028EDD197F84130990604
:103E000003F03F0228D0D0071ED491071ED45707D5
:103E10001ED416071ED412F0100F0CBF0623052364
:103E200090062AD4052B26D801A252F823F000BF11
:103E3000D93D00087B3E00087B3E00087B3E000821
:103E40007B3E00085D3E00080123E9E70223E7E727
:103E50000323E5E70423E3E72346E1E700236621A4
:103E600028461A4600F097FE0023992128461A4654
:103E700000F091FEB0E70124AEE70E24ACE700BFEE
:103E80008C0500247C0400246C05002437B5434CC9
:103E90000546E378002B61D1E37AEBB1627A013B0E
:103EA000A17A28468DF801209BB2227A8DF8001065
:103EB0008DF80220E27B8DF80320A27B8DF8042090
:103EC000627B8DF80520227B8DF806200DF1010222
:103ED00000F061FE00285ED1E37CEBB1627C013B27
:103EE000A17C28468DF801209BB2227C8DF8001021
:103EF0008DF80220E27D8DF80320A27D8DF804204C
:103F0000627D8DF80520227D8DF806200DF10102DD
:103F100000F041FE00283ED1E37EE3B1627E013B2A
:103F2000A17E28468DF801209BB2227E8DF80010DC
:103F30008DF80220E27F8DF80320A27F8DF8042007
:103F4000627F8DF80520227F8DF806200DF1010299
:103F500000F021FEF8B9002003B030BD6278013BCB
:103F6000A1788DF801209BB222788DF800108DF891
:103F70000220E2798DF80320A2798DF8042062797D
:103F80008DF8052022798DF806200DF1010200F050
:103F900002FE002880D00A20DEE700BFDC040024F7
:103FA0002DE9FF41344B0446344D8846039395F880
:103FB000273003F01803182B5AD195F826600227F2
:103FC00002AB95F8251036020097324600F08AFDC4
:103FD000034600284CD1024694F86810204600F0B1
:103FE000DAFD002844D14FF47A7094F86B3094F8DD
:103FF0006AC0B3FA83F30190012094F86C205B0946
:1040000094F8691000FA0CF003FA0CF3C0B2DBB2BA
:104010000090204600F0F2FD50BB95F8273004A92F
:10402000204603F00702C3F341130B4408FA02F8D9
:1040300013F8041C009701FA02F39DF808103246A9
:1040400021EA030102AB41EA0801C9B28DF8081068
:104050008DF8091095F8241000F06FFD40B995F81F
:10406000251002AB00973246204600F03BFD00B120
:104070000B2004B0BDE8F08103070F1FFC040024EF
:10408000F0B5002387B004468DF80E30D0F88C30A0
:104090001A0740F15C825F0640F15B82A64DAB7966
:1040A00013F0060F00F05582AB680521002BA2BF6C
:1040B0000133B3FA83F3C3F11F0380F8553090F84E
:1040C0005530DA1E043B80F8552006AA02F8093D57
:1040D00000F0B4FB95F82C3095F823001A09012361
:1040E00095F82560934095F8222095F82710A36550
:1040F00084F8722095F8203095F8242084F87030E8
:1041000084F8742095F8213095F8262084F87130D1
:1041100084F8730084F8756084F8762084F877104A
:104120008BB12B8D854FC3F3041295F8283003F023
:104130000F0302FB033395F82920C2F3410237F83D
:1041400012205343A36795F8283003F00F0368B19A
:1041500095F8292095F82A00D208784F00F003003E
:1041600002FB033237F810004243E26776B195F85C
:104170002A20688DC2F38402704EC0F3C11002FB86
:10418000033236F810004243C4F8802061B195F83C
:104190002B206A48C2F34401920901FB033130F835
:1041A00012204A43C4F8842095F82F10644A01F085
:1041B0001F00C1F3411152F8212000FB022253439A
:1041C000C4F88830052384F8693084F864302B798A
:1041D000DE064CBF5023062384F8683095F8403043
:1041E00003F07F03D80758D50623D4F88C6084F8F1
:1041F0006830B7055FD5534BDA7C100613D5597C70
:1042000084F86410D97CC1F3020184F86510D97C6C
:10421000C1F3801184F86610D10642BFD97CC1F386
:10422000C00184F8671093F91710002913DA597D3B
:10423000D20684F86910D97DC1F3020184F86A10AE
:10424000D97DC1F3801184F86B1004D5DB7DC3F3F5
:10425000C00384F86C30022316F4805684F86E3064
:104260007FD094F85430032B40F0EB8094F85C300E
:10427000052B37D10126D4F88C30180769D52B6867
:10428000102B66D995F84B30C3F34113002B5DD04A
:10429000012B00F0D4800E200BE09907A4D45A071C
:1042A00001D55023A1E713F00B0FFAD1DB069BD405
:1042B000092007B0F0BD95F838309B0813F00102D3
:1042C0000AD19F0740F14781702384F86B2084F85E
:1042D0006930072384F86A30002384F8653084F855
:1042E0006630B8E72046FFF7D1FD014608BB2246FD
:1042F0000523204602F85C3F00F0A0FA08B10B202D
:10430000D7E7114EF279FD2A07D106AA142301211D
:10431000204642F8083D00F091FAF379FE2BA9D12E
:1043200006AA08230121204642F8083D00F086FA3B
:10433000A0E700269FE700BF7C040024CE4F0008C2
:10434000D84F0008FC0400246C05002401238DF8DC
:104350000E300DF10E020421204600F06FFA002805
:10436000CDD1D4F88C3059063FD5002E6BD094F8BF
:1043700054307B4E032B17D194F85C10A1B973888D
:1043800003F49073B3F5907F0ED1224604232046A8
:1043900002F85C3F00F052FA0028B0D1CC2384F838
:1043A0006E308E2384F86D3094F85C30052B00D08D
:1043B0007BB93378580644BF122284F86D20D907A0
:1043C00044BF132284F86E209A0744BF0C2384F85C
:1043D0006E30337984F87130737984F87330B3793F
:1043E00084F87530F37984F87730D4F88C0010F0C5
:1043F00080003FF45EAF94F85C30052B40F0AD8058
:10440000584E73780BB184F86E3095F8530000095C
:10441000FFF768FB05AB0246216E204600F0CFF99E
:10442000002840F09080059A4F4B9A425AD9B389A0
:10443000357BC3F3C4130493C5F384055DE0002307
:1044400085E700268DE795F84330DA0719D533461E
:104450003246B721204600F09EFB00287FF44FAF84
:1044600032460221204600F0E9F900287FF447AFE8
:1044700000220221204600F0E1F900283FF477AF46
:104480003DE79F072AD53346324694F86810204608
:1044900000F081FB00287FF432AF4FF47A7094F87B
:1044A0006B3094F86A70B3FA83F30190012094F8AA
:1044B0006C205B0994F86910B840BB40C0B2DBB215
:1044C0000090204600F09AFB00287FF418AF334696
:1044D0003246B721204600F05EFBC6E713F0600FBE
:1044E000C6D1D8E6214B224913448B4218D8F37C1D
:1044F000758ADB08C5F38415049304AA01212046BC
:1045000000F09CF9D4F88C309B051ED5194B93F91B
:104510002730002B19DA29462046FFF741FDC8E66F
:10452000154B1344154A934207D8B37C3569C3F33E
:104530004403C5F304350493DFE7338A357CC3F3C2
:10454000C413049378E70C20B3E60D20B1E60620EF
:10455000AFE60720ADE60820ABE60020A9E600BFE5
:104560007404002474050024FFC1EB0B800A1BF6C1
:1045700080CC0602FC040024C09412F83F8AF701A4
:10458000F0B5154685B0942206460F461846002120
:104590001C4600F02BFC0023314684F8547084F84C
:1045A0005C302046256600F024F901AB1E4A2946FE
:1045B000204600F004F9204600F084FA032202A904
:1045C000204600F03CFA2046FFF7C8FA18B14FF039
:1045D000FF3005B0F0BD2046FFF7E8FB0A20FBF7EF
:1045E00069FF2046FFF7BAFA0028F0D1032202A99A
:1045F000204600F024FA2046FFF760FB0028E6D1B1
:104600002046FFF73DFD054658B94FF0AA33032277
:1046100002A920460293ADF80C3000F010FA2846AB
:10462000D7E76FF00200D4E780F0FA02002380F8A9
:1046300055301846704713B5002490F86D3090F847
:10464000482090F86E10009400F03FFBA04214BF89
:104650006FF00C00204602B010BD08B500F032FA31
:10466000002814BF6FF00C00002008BD08B500F052
:1046700029FA002008BD37B5044690F86B2090F861
:104680006D1000F000FB002894F86B0094F86A307D
:1046900008BF00250090204694F86E2018BF6FF0E8
:1046A000040594F86C1000F010FB00280CBF28469D
:1046B0006FF0040003B030BD08B500F003FA002825
:1046C00014BF6FF00500002008BD30B590F86830C9
:1046D00085B00546022B28D801EB4101441890F81B
:1046E000661094F85F20009303AB00F0FBF9F8B973
:1046F00094F85D2028469DF80C3095F8671023EA61
:10470000020394F85E20134394F85F208DF80C3078
:1047100095F86830009303AB00F00FFA00280CBF47
:1047200000206FF0010005B030BD6FF00600FAE721
:104730004FF0FF30F7E7F7B51C4615460F46014628
:10474000184600F056F8204600F0BCF9294601ABA7
:10475000A26D204600F033F8054668BB04F1540210
:104760000521204602AE00F069F8062329462046BE
:1047700006F8053D324600F061F804F169020121B6
:10478000204600F05BF8E9B294F85C308B420BD81D
:10479000042F11D107233246002120468DF8033023
:1047A00000F04CF8002005E020460135FFF78DFFB2
:1047B0000028E8D003B0F0BD6FF07F00FAE730B515
:1047C000AAB1B1FBF2F42CB1B1FBF4F5954298BF5C
:1047D00004F1FF34621CB1FBF2F1196003680020A0
:1047E0001A68D36823F0FF031C43D46030BD012056
:1047F000FCE770B54C2594B004460E462A460021CD
:1048000001A800F0F3FA5A2201234FF480712046E8
:10481000CDE903234FF4005340F8046B2A46CDE959
:1048200008134FF0807301A90F9308231293FBF72D
:104830005FFD002084F8500014B070BD2DE9F04FEA
:10484000031D99B004468846029219464C2205A8D9
:104850000393FBF74DFD636CD4F818E00193A76A4E
:10486000266BE56BD4E904A9D4E908C1D4E9122385
:10487000B8F1050F00F2B380DFE808F01CAE03B119
:10488000999F4FF4405100240398CDF828E00E97EB
:10489000109613951793CDE90CC10199CDE9151226
:1048A0004C2205A9CDE908A9FBF722FD204619B045
:1048B000BDE8F08F02980478072C00F29080DFE8C2
:1048C00004F0041322313B465B6D002308224FF0B5
:1048D00080754FF400511F464FF4807C01939E4633
:1048E00099464FF0010ACEE7002308224FF00075E9
:1048F0004FF4005101931F464FF4007C9E469946A9
:104900004FF0020ABFE7002308224FF040751F4610
:1049100001934FF400514FF4407C9E4699464FF06E
:10492000030AB0E74FF00061002308224FF0407502
:1049300001914FF40067ECE7002310224FF08065EF
:104940004FF4405101931F464FF4806CC7E74FF07E
:1049500000614FF0005314224FF0806501914FF435
:1049600000674FF440514FF4806C4FF0080E4FF049
:1049700010094FF0040A86E74FF000614FF0005332
:104980000A224FF08065019100264FF400674FF432
:1049900040514FF4806CB646B146EAE74FF00061F3
:1049A0004FF000530A224FF0A0650191ECE7029806
:1049B00090F8008084F8508065E72468D4F800807F
:1049C000029CD8F8080094F800B020F4F81444EAE7
:1049D0000B44C8F8084056E7029A127853E70124BE
:1049E00052E7F0B595B005460F461646011D4C221C
:1049F00001A81C46FBF77CFC059BDBB95A2341F25E
:104A0000883201A92868109403930797FEF76AFA81
:104A1000044690B95EB1314641F288322868FEF70B
:104A2000F6FA064618B134462868FEF7CCFB204655
:104A300015B0F0BD45F6A523E1E70646F3E770B5EE
:104A400094B004460E461546011D4C2201A8FBF702
:104A50004FFC059B94F85010102B2FD149F6607332
:104A600049F69F72002918BF1346039301A9049BBE
:104A70002068012B4FF00003109511BF0422129300
:104A800008934FF0807316BF07930F93CDE911324F
:104A900041F28832FEF726FA054688B95EB1314602
:104AA00041F288322068FEF7B2FA064618B1354660
:104AB0002068FEF788FB284614B070BD9F23D4E71A
:104AC0000646F4E7BFF34F8F0068FEF77CBB102962
:104AD00010B5044690B204D103020CB9D243D0B24F
:104AE000184310BDF0B595B004460F461546011D9C
:104AF0004C2201A81E46FBF7FBFB05993A4694F8A9
:104B00005000FFF7E4FF1A9B039041F2883201A99D
:104B1000206807951093FEF7E5F9054638B941F28C
:104B2000883231462068FEF772FA054610B12068D7
:104B3000FEF749FB284615B0F0BDF0B595B0044628
:104B40000F461546011D4C2201A81E46FBF7D0FB5F
:104B500005993A4694F85000FFF7B9FF00221A9BD6
:104B600001A90390206807951093CDE9122241F224
:104B70008832FEF7B7F9054638B941F28832314636
:104B80002068FEF700FA054610B12068FEF71BFB0F
:104B9000284615B0F0BDF0B595B004460D46174651
:104BA000011D4C2201A81E46FBF7A2FB2A460599CF
:104BB00094F85000FFF78BFF0023039008931293A3
:104BC0001096139306B90F9641F2883201A9206816
:104BD000FEF788F9054678B95EB141F28832394668
:104BE0002068FEF7D0F9064618B135462068FEF772
:104BF000EAFA284615B0F0BD0646F6E7F0B599B0DA
:104C000004460F461646011D4C2205A81D46FBF71B
:104C10006FFB9DF878300095002501934FF48003D9
:104C200009993A4694F85000CDE9025310230493B1
:104C3000FFF74DFF0123079041F2883205A9149335
:104C40004FF4405320680D93089B1595012B179541
:104C50000B9609BF4FF0807304230C9516950CBF7B
:104C600013931693FEF73EF9054630B91F9A69462D
:104C70002068FEF722FA054610B12068FEF7A3FA75
:104C8000284619B0F0BD70B594B0044615460E46DE
:104C90004C22011D01A8FBF72BFB0323059932468B
:104CA00094F850000193FFF712FF41F2883203900D
:104CB00001A920681295FEF715F9054610B1206884
:104CC000FEF781FA284614B070BDF0B597B00546DE
:104CD00014460F464C22011D03A81E46FBF708FB95
:104CE00000220123079995F850000393CDE9012292
:104CF0003A46FFF7ECFE41F28832059003A9286896
:104D00001494FEF7EFF80446E0B9022307993246FF
:104D100095F850000393FFF7DAFE9DF8703041F2EA
:104D20008832059003A928681493FEF7DBF804463F
:104D300040B95023019001A928680293FEF714FAA4
:104D4000044610B12868FEF73EFA204617B0F0BDC1
:104D50000D488546FEF752FD0C480D490D4A0023CB
:104D600002E0D458C4500433C4188C42F9D30A4A20
:104D70000A4C002301E013600432A242FBD300F08E
:104D800011F8FEF749FBFEE70000012000000024B7
:104D90003C040024F84F00083C0400242C080024A4
:104DA000FEE7000070B50D4E0D4D761BB61006D017
:104DB0000024013455F8043B9847A642F9D1094E26
:104DC000094D761B00F0EAF8B61006D00024013435
:104DD00055F8043B9847A642F9D170BDEC4F000846
:104DE000EC4F0008F44F0008EC4F0008F0B48607C1
:104DF00043D0541E002A3ED0CAB2034602E014F14A
:104E0000FF3438D303F8012B9D07F8D1032C2BD99D
:104E1000CDB245EA05250F2C45EA054516D9A4F182
:104E200010073F0903F1200606EB071603F11002F5
:104E300042E9045542E902551032B242F8D104F079
:104E40000F040137032C03EB07130DD91E4622462E
:104E5000043A032A46F8045BFAD8221F22F0030220
:104E60000432134404F003042CB1C9B21C4403F807
:104E7000011B9C42FBD1F0BC704714460346C5E7BA
:104E8000024B13B1024800F005B870470000000063
:104E9000A14E0008002301461A46184600F01EB82D
:104EA00038B50A4C0A4D641BA4100AD004F18043A3
:104EB000013B05EB8305013C55F804399847002C6C
:104EC000F9D1BDE8384000F06FB800BFF84F0008D6
:104ED000F44F0008704700BF704700BF2DE9F8434A
:104EE0002B4D0646286898460F469146FFF7F2FF7D
:104EF000284B1C68D4F84831002B3DD05A681F2A33
:104F00000DDC02F1010C16BB0232C3F804C02868A4
:104F100043F82270FFF7E0FF0020BDE8F8831E4B46
:104F20007BB34FF4C870AFF30080034648B3D4F8A6
:104F300048210021C0E900214FF0010CC4F84801CC
:104F40000A46C0F88811C0F88C11002EDCD003EBA3
:104F500082010124C1F88890D3F88801944020434D
:104F6000022EC3F88801C1F80881CDD1D3F88C1185
:104F70000C43C3F88C41C7E704F5A673C4F8483165
:104F8000BCE72868FFF7A8FF4FF0FF30C5E700BF78
:104F900038040024E84F000800000000F8B500BF06
:104FA000F8BC08BC9E467047F8B500BFF8BC08BC0A
:044FB0009E46704762
:104FB4000000210032004200500064008500A60079
:104FC400C800FA000A014D01900110000001A00F71
:104FD40000FA00001000000000010000A00F000013
:084FE40000FA00001000002497
:084FEC00814E0008D502000807
:044FF400B1020008FE
:104FF80001000000100000000090D0030000000035
:1050080000000000FC02002464030024CC030024F8
:105018000000000000000000000000000000000088
:105028000000000000000000000000000000000078
:105038000000000000000000000000000000000068
:105048000000000000000000000000000000000058
:105058000000000000000000000000000000000048
:105068000000000000000000000000000000000038
:105078000000000000000000000000000000000028
:105088000000000000000000000000000000000018
:105098000000000000000000000000000000000008
:1050A80000000000000000000100000000000000F7
:1050B8000E33CDAB34126DE6ECDE05000B000000BC
:1050C80000000000000000000000000000000000D8
:1050D80000000000000000000000000000000000C8
:1050E80000000000000000000000000000000000B8
:1050F80000000000000000000000000000000000A8
:0C54280000000000000000000808002444
:0400000508004D5151
:00000001FF
